:100000000C942A000C9434000C9434000C943400AA
:100010000C9434000C9434000C9434000C94340090
:100020000C9434000C9434000C9434000C94340080
:100030000C9434000C9434000C9434000C94340070
:100040000C9434000C9434000C9434000C94340060
:100050000C94340011241FBECFE5D8E0DEBFCDBF25
:100060000E9474040C9479040C940000DF93CF93E5
:10007000CDB7DEB728970FB6F894DEBF0FBECDBF61
:100080008A836B834C838B81883008F0F4C08C8129
:10009000813009F072C08A81282F30E038872F83A1
:1000A0008F8198858130910549F12F8138852230E3
:1000B00031052CF48F819885009761F05BC02F810A
:1000C00038852230310571F18F8198858330910513
:1000D000E9F150C0AAE3B0E0EAE3F0E08081482F04
:1000E0008B81282F30E081E090E0022E02C0880F43
:1000F000991F0A94E2F7842B8C93BFC0A7E3B0E06A
:10010000E7E3F0E08081482F8B81282F30E081E009
:1001100090E0022E02C0880F991F0A94E2F7842B08
:100120008C93ABC0A4E3B0E0E4E3F0E08081482F1F
:100130008B81282F30E081E090E0022E02C0880FF2
:10014000991F0A94E2F7842B8C9397C0A1E3B0E047
:10015000E1E3F0E08081482F8B81282F30E081E0BF
:1001600090E0022E02C0880F991F0A94E2F7842BB8
:100170008C9383C081E0898380C08C81882309F0BF
:1001800077C08A81282F30E03E832D838D819E8128
:100190008130910559F12D813E81223031052CF4B9
:1001A0008D819E81009769F060C02D813E81223053
:1001B000310589F18D819E818330910509F440C01C
:1001C00054C0AAE3B0E0EAE3F0E08081482F8B81DD
:1001D000282F30E081E090E0022E02C0880F991FA6
:1001E0000A94E2F7809584238C9347C0A7E3B0E09C
:1001F000E7E3F0E08081482F8B81282F30E081E019
:1002000090E0022E02C0880F991F0A94E2F78095B1
:1002100084238C9332C0A4E3B0E0E4E3F0E0808177
:10022000482F8B81282F30E081E090E0022E02C021
:10023000880F991F0A94E2F7809584238C931DC040
:10024000A1E3B0E0E1E3F0E08081482F8B81282F2B
:1002500030E081E090E0022E02C0880F991F0A94DE
:10026000E2F7809584238C9308C081E0898305C0E0
:1002700081E0898302C081E0898328960FB6F894D3
:10028000DEBF0FBECDBFCF91DF910895DF93CF9337
:10029000CDB7DEB727970FB6F894DEBF0FBECDBF40
:1002A0008A836B838B818F3FB1F58A81282F30E061
:1002B0003F832E838E819F8181309105D1F02E81E5
:1002C0003F81223031052CF48E819F81009761F0AF
:1002D0001FC02E813F812230310581F08E819F81A8
:1002E0008330910581F014C0EAE3F0E08FEF808362
:1002F00049C0E7E3F0E08FEF808344C0E4E3F0E03F
:100300008FEF80833FC0E1E3F0E08FEF80833AC05E
:1003100081E0898337C08B81882391F58A81282FDA
:1003200030E03D832C838C819D8181309105C9F023
:100330002C813D81223031052CF48C819D810097E8
:1003400061F01BC02C813D812230310571F08C8120
:100350009D818330910569F010C0EAE3F0E01082DE
:1003600011C0E7E3F0E010820DC0E4E3F0E010829A
:1003700009C0E1E3F0E0108205C081E0898302C09A
:1003800081E0898327960FB6F894DEBF0FBECDBFFC
:10039000CF91DF910895DF93CF93CDB7DEB7289744
:1003A0000FB6F894DEBF0FBECDBF8A836B834C833C
:1003B0008B81883008F0F4C08C81813009F072C0E4
:1003C0008A81282F30E038872F838F81988581306C
:1003D000910549F12F813885223031052CF48F8128
:1003E0009885009761F05BC02F81388522303105F8
:1003F00071F18F81988583309105E9F150C0ABE3AD
:10040000B0E0EBE3F0E08081482F8B81282F30E0D3
:1004100081E090E0022E02C0880F991F0A94E2F753
:10042000842B8C93BFC0A8E3B0E0E8E3F0E08081C8
:10043000482F8B81282F30E081E090E0022E02C00F
:10044000880F991F0A94E2F7842B8C93ABC0A5E325
:10045000B0E0E5E3F0E08081482F8B81282F30E089
:1004600081E090E0022E02C0880F991F0A94E2F703
:10047000842B8C9397C0A2E3B0E0E2E3F0E08081AC
:10048000482F8B81282F30E081E090E0022E02C0BF
:10049000880F991F0A94E2F7842B8C9383C081E024
:1004A000898380C08C81882309F077C08A81282FB6
:1004B00030E03E832D838D819E818130910559F1FD
:1004C0002D813E81223031052CF48D819E81009753
:1004D00069F060C02D813E812230310589F18D8126
:1004E0009E818330910509F440C054C0ABE3B0E075
:1004F000EBE3F0E08081482F8B81282F30E081E012
:1005000090E0022E02C0880F991F0A94E2F78095AE
:1005100084238C9347C0A8E3B0E0E8E3F0E0808157
:10052000482F8B81282F30E081E090E0022E02C01E
:10053000880F991F0A94E2F7809584238C9332C028
:10054000A5E3B0E0E5E3F0E08081482F8B81282F20
:1005500030E081E090E0022E02C0880F991F0A94DB
:10056000E2F7809584238C931DC0A2E3B0E0E2E320
:10057000F0E08081482F8B81282F30E081E090E0EF
:10058000022E02C0880F991F0A94E2F780958423F7
:100590008C9308C081E0898305C081E0898302C013
:1005A00081E0898328960FB6F894DEBF0FBECDBFD9
:1005B000CF91DF910895DF93CF93CDB7DEB7279723
:1005C0000FB6F894DEBF0FBECDBF8A836B838B81DD
:1005D0008F3FB1F58A81282F30E03F832E838E81B3
:1005E0009F8181309105D1F02E813F8122303105EC
:1005F0002CF48E819F81009761F01FC02E813F8176
:100600002230310581F08E819F818330910581F008
:1006100014C0EBE3F0E08FEF808349C0E8E3F0E043
:100620008FEF808344C0E5E3F0E08FEF80833FC02D
:10063000E2E3F0E08FEF80833AC081E0898337C046
:100640008B81882391F58A81282F30E03D832C838C
:100650008C819D8181309105C9F02C813D812230B2
:1006600031052CF48C819D81009761F01BC02C8199
:100670003D812230310571F08C819D81833091055F
:1006800069F010C0EBE3F0E0108211C0E8E3F0E0A5
:1006900010820DC0E5E3F0E0108209C0E2E3F0E073
:1006A000108205C081E0898302C081E0898327969A
:1006B0000FB6F894DEBF0FBECDBFCF91DF91089586
:1006C000DF93CF9300D000D00F92CDB7DEB78A83EF
:1006D0006B838A81282F30E03D832C838C819D8120
:1006E00081309105D1F02C813D81223031052CF4EF
:1006F0008C819D81009761F01FC02C813D8122304B
:10070000310581F08C819D818330910581F014C089
:10071000EBE3F0E08B81808311C0E8E3F0E08B81B4
:1007200080830CC0E5E3F0E08B81808307C0E2E3C7
:10073000F0E08B81808302C081E089830F900F906D
:100740000F900F900F90CF91DF910895DF93CF938B
:1007500000D000D00F92CDB7DEB78A836B838A8139
:10076000282F30E03D832C838C819D818130910541
:10077000D1F02C813D81223031052CF48C819D817A
:10078000009761F01FC02C813D812230310581F03E
:100790008C819D818330910581F014C0EAE3F0E003
:1007A0008B81808311C0E7E3F0E08B8180830CC0F4
:1007B000E4E3F0E08B81808307C0E1E3F0E08B812C
:1007C000808302C081E089830F900F900F900F907B
:1007D0000F90CF91DF910895DF93CF9300D000D099
:1007E00000D0CDB7DEB78B836C838B81843008F06B
:1007F0006FC08C81883008F06BC08B81282F30E06F
:100800003E832D834D815E814130510541F18D81C3
:100810009E818230910534F42D813E812115310570
:1008200061F053C04D815E814230510551F18D819F
:100830009E8183309105B9F148C0E9E3F0E0808101
:10084000282F30E08C81882F90E0A90102C05595B7
:1008500047958A95E2F7CA0181708A833BC0E6E337
:10086000F0E08081282F30E08C81882F90E0A90172
:1008700002C0559547958A95E2F7CA0181708A832F
:1008800029C0E3E3F0E08081282F30E08C81882FBD
:1008900090E0A90102C0559547958A95E2F7CA01F3
:1008A00081708A8317C0E0E3F0E08081282F30E078
:1008B0008C81882F90E0A90102C0559547958A95B3
:1008C000E2F7CA0181708A8305C081E0898302C092
:1008D00081E089838A8126960FB6F894DEBF0FBE29
:1008E000CDBFCF91DF910895DF93CF93CDB7DEB722
:0608F000FFCFF894FFCFDA
:00000001FF
