:100000000C942A000C94B4010C94E7010C941A028D
:100010000C943C000C943C000C943C000C943C0070
:100020000C943C000C943C000C943C000C943C0060
:100030000C943C000C943C000C943C000C943C0050
:100040000C943C000C943C000C943C000C943C0040
:100050000C943C0011241FBECFE5D8E0DEBFCDBF1D
:1000600010E0A0E6B0E001C01D92A636B107E1F7AE
:100070000E9486020C948B020C940000DF93CF93B5
:1000800000D00F92CDB7DEB789838981282F30E069
:100090003B832A838A819B818130910589F02A8163
:1000A0003B8122303105A1F08A819B810097B9F410
:1000B000ABE5B0E0EBE5F0E0808180648C930FC0AD
:1000C000ABE5B0E0EBE5F0E0808180688C9307C0A1
:1000D000ABE5B0E0EBE5F0E0808180628C930F90BF
:1000E0000F900F90CF91DF910895DF93CF9300D0C1
:1000F0000F92CDB7DEB789838981282F30E03B830B
:100100002A838A819B818130910589F02A813B81F4
:1001100022303105A1F08A819B810097B9F4ABE5CB
:10012000B0E0EBE5F0E080818F7B8C930FC0ABE516
:10013000B0E0EBE5F0E080818F778C9307C0ABE512
:10014000B0E0EBE5F0E080818F7D8C930F900F9015
:100150000F90CF91DF910895DF93CF93CDB7DEB7A6
:100160002A970FB6F894DEBF0FBECDBF89836A838E
:100170008981282F30E03A87298789859A858130BF
:10018000910509F466C029853A852230310509F4C4
:10019000BBC089859A85009709F0DDC08A81282F28
:1001A00030E038872F838F8198858130910521F148
:1001B0002F813885223031052CF48F819885009766
:1001C00061F0C9C02F8138852230310521F18F813E
:1001D00098858330910571F1BEC0A5E5B0E0E5E5F5
:1001E000F0E080818E7F8C93A5E5B0E0E5E5F0E05E
:1001F00080818D7F8C93AFC0A5E5B0E0E5E5F0E0B0
:10020000808181608C93A5E5B0E0E5E5F0E0808138
:100210008D7F8C93A0C0A5E5B0E0E5E5F0E080819E
:100220008E7F8C93A5E5B0E0E5E5F0E0808182600B
:100230008C9391C0A5E5B0E0E5E5F0E080818160B8
:100240008C93A5E5B0E0E5E5F0E0808182608C93D9
:1002500082C08A81282F30E03E832D838D819E814C
:100260008130910521F12D813E81223031052CF420
:100270008D819E81009761F06EC02D813E8122307C
:10028000310521F18D819E818330910571F163C02B
:10029000A5E5B0E0E5E5F0E080818B7F8C93A5E5F6
:1002A000B0E0E5E5F0E08081877F8C9354C0A5E560
:1002B000B0E0E5E5F0E0808184608C93A5E5B0E0F6
:1002C000E5E5F0E08081877F8C9345C0A5E5B0E04F
:1002D000E5E5F0E080818B7F8C93A5E5B0E0E5E576
:1002E000F0E0808188608C9336C0A5E5B0E0E5E55C
:1002F000F0E0808184608C93A5E5B0E0E5E5F0E076
:10030000808188608C9327C08A81282F30E03C83CD
:100310002B838B819C818230910531F02B813C8134
:100320002330310549F010C0A4E5B0E0E4E5F0E089
:1003300080818F7B8C930FC0A4E5B0E0E4E5F0E012
:10034000808180648C9307C0A4E5B0E0E4E5F0E030
:1003500080818F7B8C932A960FB6F894DEBF0FBEF8
:10036000CDBFCF91DF9108951F920F920FB60F92DC
:1003700011242F933F934F935F936F937F938F93AA
:100380009F93AF93BF93EF93FF93DF93CF93CDB73B
:10039000DEB78091600090916100009729F0E091B4
:1003A0006000F09161000995CF91DF91FF91EF918D
:1003B000BF91AF919F918F917F916F915F914F917D
:1003C0003F912F910F900FBE0F901F9018951F9285
:1003D0000F920FB60F9211242F933F934F935F9379
:1003E0006F937F938F939F93AF93BF93EF93FF93FD
:1003F000DF93CF93CDB7DEB7809162009091630019
:10040000009729F0E0916200F09163000995CF9187
:10041000DF91FF91EF91BF91AF919F918F917F916C
:100420006F915F914F913F912F910F900FBE0F9061
:100430001F9018951F920F920FB60F9211242F93B1
:100440003F934F935F936F937F938F939F93AF935C
:10045000BF93EF93FF93DF93CF93CDB7DEB7809138
:10046000640090916500009729F0E0916400F0919C
:1004700065000995CF91DF91FF91EF91BF91AF9109
:100480009F918F917F916F915F914F913F912F91AC
:100490000F900FBE0F901F901895DF93CF9300D051
:1004A00000D00F92CDB7DEB789837B836A838981C1
:1004B000282F30E03D832C838C819D8181309105F4
:1004C00081F02C813D812230310591F08C819D811C
:1004D0000097A1F48A819B819093610080936000D2
:1004E0000DC08A819B81909363008093620006C057
:1004F0008A819B8190936500809364000F900F9098
:100500000F900F900F90CF91DF910895DF93CF93CD
:0A051000CDB7DEB7FFCFF894FFCFA0
:00000001FF
